:020000040000FA
:1000000002EF00F06DD8010E006E016A6FD881809A
:1000100081A806D0020E006E016A68D8010E836EB8
:1000200081AA06D0020E006E016A60D8020E836EAD
:1000300081AC06D0020E006E016A58D8030E836EA2
:100040008190818281A806D0020E006E016A4ED88E
:10005000040E836E81AA06D0020E006E016A46D895
:10006000050E836E81AC06D0020E006E016A3ED88A
:10007000060E836E8192818481A806D0020E006EE6
:10008000016A34D8070E836E81AA06D0020E006E74
:10009000016A2CD8080E836E81AC06D0020E006E69
:1000A000016A24D8090E836E8194818681A806D0C6
:1000B000020E006E016A1AD80B0E836E81AA06D05A
:1000C000020E006E016A12D80A0E836E81AC06D051
:1000D000020E006E016A0AD80C0E836E819697D7C5
:1000E000F29EF00E936E956A836A12000050011022
:1000F0000BE08C0E026E025203E000000206FBD7FA
:0A0100000006000E015AF2D71200AB
:020000040030CA
:04000000FFF1F8FE16
:00000001FF
