:020000040000FA
:0400000045EF00F0D8
:10000800D8CF00F0E0CF01F0026EF292033C02D0AC
:10001800070E036E080E036201D0036A0352D8A4C8
:1000280002D0010E826E032C02D0020E826E020EE6
:10003800036202D0040E826E030E036202D0080E21
:10004800826E040E036202D0100E826E050E0362E9
:1000580002D0200E826E060E036202D0400E826E1F
:10006800070E036202D0800E826E834C032A020EB2
:10007800836201D00306025001C0E0FF00C0D8FF30
:100088001000036A946A826A010E956E836AF28888
:06009800F18CF28EFFD78F
:020000040030CA
:04000000FFF1F8FE16
:00000001FF
