:100000009DEF00F0FFFFFFFF00C02BF0E9CF27F0CE
:10001000EACF28F0E1CF29F0E2CF2AF0F2A203D014
:100020001EEC00F0F29227C0E9FF28C0EAFF29C0C9
:10003000E1FF2AC0E2FF2BC000F011008350010A4B
:1000400020E1010E046E25C000F026C001F004502E
:1000500005E0003600900136FF0FFAD7150E002498
:10006000E96E000E0120EA6EEECF82FF254A262AB5
:10007000000E261802E1080E251802E1256A266AFC
:1000800026D08350020A23E1010E046E25C000F041
:1000900026C001F0045005E0003600900136FF0F45
:1000A000FAD7150E0024E96E000E0120EA6EEECF9D
:1000B00082FF010E255E000E265AFF0E261802E171
:1000C000FF0E251804E1070E256E000E266E1200A5
:1000D000946A826A010E956E836A880EF26EF10E42
:1000E000F16E8B0EF06EF292F290F092F0901200A0
:1000F000010E156E000E166E020E176E000E186EB3
:10010000040E196E000E1A6E080E1B6E000E1C6E89
:10011000100E1D6E000E1E6E200E1F6E000E206E45
:10012000400E216E000E226E800E236E000E246E95
:10013000000E256E000E266E120078EC00F068ECC2
:1001400000F0FFD7FFD7FFFFFFFFFFFFFFFFFFFF1D
:020000040030CA
:0E000000FFF9FDFEFFFFFFFFFFFFFFFFFFFF09
:00000001FF
