:020000040000FA
:1000000002EF00F013D83DD8006A800E45D8DC0E10
:10001000066E050E076E0DD8110E006E800E3CD8D0
:10002000DC0E066E050E076E04D8EED7956A966A4A
:100030001200065007100BE08C0E086E085203E009
:1000400000000806FBD70606000E075AF2D712007A
:10005000056E140E066E076AECDF05C083FF8492FE
:10006000849084801200056E640E066E076AE1DFDC
:1000700005C083FF848284908480010E066E076A27
:10008000D8D7849484808482380EE2DF010EE0DFCA
:100090000D0EDEDF060EDCD7016E026A0250002470
:1000A00018D8000A02E0022AF9D70150D1DF036A0A
:1000B000025003600DD0035000240BD8D4DF046A33
:1000C0001E0E046003D00000042AFAD7032AF0D7DA
:1000D0001200056EE60FF66E000EF76AF722F86A58
:1000E0000800F550120045454D34313520202020C0
:1000F000202020202020006170706C696361746989
:0C0100006F6E2066696C652020202000D6
:00000001FF
