:020000040000FA
:1000000002EF00F028D8C96A9EA6FED7C9CF00F03B
:100010009E9600C081FF020E006203D0016A800E2E
:1000200070D8040E006204D0170E016E800E69D8DD
:10003000080E006204D02E0E016E800E62D8100EE3
:10004000006204D0450E016E800E5BD8640E076E10
:10005000086A22D8D8D79268966A956A946A948674
:10006000948A936A01D842D0C698C79CC696C68423
:10007000C692C680C68AC69CC69E12007F6E8390BA
:100080007FC0C9FF9EA6FED7C9CF7FF09E96838012
:100090007FC081FF7F50120007500810D8B40CD0E9
:1000A0008C0E096E0952D8B403D000000906FAD7A5
:1000B0000706000E085AF0D71200066E140E076EDF
:1000C000086AEADF06C083FF84928490848012006D
:1000D000066E140E076E086ADFDF06C083FF848297
:1000E00084908480010E076E086AD6D78494848039
:1000F0008482380EE2DF010EE0DF0D0EDEDF060E39
:10010000DCD7026E036A0350012419D8000AD8B460
:1001100002D0032AF8D70250D0DF046A03500460EB
:100120000DD0045001240BD8D3DF056A1E0E0560E4
:1001300003D00000052AFAD7042AF0D71200066E71
:100140000650540FF66E010EF76AF722F86A08009F
:10015000F5501200626972202020202020202020EB
:100160002020202020202020202000696B692020D2
:10017000202020202020202020202020202020207F
:1001800020007563202020202020202020202020F7
:10019000202020202020202000646F727420202046
:1001A000202020202020202020202020202020006F
:00000001FF
