:020000040000FA
:1000000023EF00F0900EF26EF292F28E0A0ECF60A5
:1000100019D0050ECD6E00008298828ACD6A828842
:10002000829A090ECF6405D0CF6A0000CFCF82FF3D
:1000300009D00000CFCF82FFE80E7F6E030E7F6EE7
:100040002CD8E4D712004CD8900EF26E8288010EA4
:10005000006E016A06D88298010E006E016A01D80E
:10006000F5D70150046E0050036E0350780DF3CFA6
:1000700000F0F4CF01F00450780DF3500126035046
:10008000050DF350012600500110D8B405D0000032
:100090000006000E015AF7D712007F507F6E7F5086
:1000A0007F6E7F50780DF3CF7FF0F4CF7FF07F50DD
:1000B000780DF3507F267F50050DF3507F267F503B
:1000C0007F10D8B405D000007F06000E7F5AF7D706
:1000D00012007F50D8A402D00A0E7F60CF6A1200AF
:0A00E000F28E92689368946A120091
:00000001FF
