:020000040000FA
:1000000002EF00F0E0D880A00CD08390010EC96E02
:100010009EA6FED79E968380E80E006E030E016EAC
:10002000E7D880A20CD08390020EC96E9EA6FED7A0
:100030009E968380E80E006E030E016ED9D880A4D0
:100040000CD08390030EC96E9EA6FED79E96838029
:10005000E80E006E030E016ECBD880A60CD0839004
:100060000A0EC96E9EA6FED79E968380E80E006E8D
:10007000030E016EBDD880A80CD08390040EC96E0B
:100080009EA6FED79E968380E80E006E030E016E3C
:10009000AFD880AA0CD08390050EC96E9EA6FED75D
:1000A0009E968380E80E006E030E016EA1D882AC8E
:1000B0000CD08390060EC96E9EA6FED79E968380B6
:1000C000E80E006E030E016E93D881A00CD08390D1
:1000D0000B0EC96E9EA6FED79E968380E80E006E1C
:1000E000030E016E85D881A20CD08390070EC96ED5
:1000F0009EA6FED79E968380E80E006E030E016ECC
:1001000077D881A40CD08390080EC96E9EA6FED726
:100110009E968380E80E006E030E016E69D881A65C
:100120000CD08390090EC96E9EA6FED79E96838042
:10013000E80E006E030E016E5BD881A80CD0839090
:100140000C0EC96E9EA6FED79E968380E80E006EAA
:10015000030E016E4DD881AA0CD083900F0EC96E8C
:100160009EA6FED79E968380E80E006E030E016E5B
:100170003FD881AC0CD083900E0EC96E9EA6FED7E0
:100180009E968380E80E006E030E016E31D881AE1C
:100190000CD083900D0EC96E9EA6FED79E968380CE
:1001A000E80E006E030E016E23D882AE2CD783902A
:1001B000C96A9EA6FED79E968380E80E006E030E47
:1001C000016E16D820D7F29E92689368956AD00E79
:1001D000946E826A120094869488C686C694C692EB
:1001E000C6900A0EC86EC68A010EC26EC16A12009F
:1001F00000500110D8B40CD08C0E026E0252D8B44C
:1002000003D000000206FAD70006000E015AF0D70C
:020210001200DA
:020000040030CA
:04000000FFF1F8FE16
:00000001FF
