:020000040000FA
:1000000002EF00F021D881A006D0010E2DD8C80E35
:10001000006E016A34D881A206D0020E25D8C80E1F
:10002000006E016A2CD881A406D0040E1DD8C80E1B
:10003000006E016A24D881A6E6D7080E15D8C80E2E
:10004000006E016A1CD8DFD79268966A956A946A36
:10005000936800D0C698C78CC696C694C692C690C0
:10006000C68AC69CC69E1200006E839000C0C9FF5F
:100070009EA6FED79E96C9CF01F083801200005045
:100080000110D8B40CD08C0E026E0252D8B403D03A
:1000900000000206FAD70006000E015AF0D712003F
:00000001FF
