:020000040000FA
:1000000002EF00F0E0D880A00CD08390010EC96E02
:100010009EA6FED79E968380E80E006E030E016EAC
:10002000EBD880A20CD08390020EC96E9EA6FED79C
:100030009E968380E80E006E030E016EDDD880A4CC
:100040000CD08390030EC96E9EA6FED79E96838029
:10005000E80E006E030E016ECFD880A60CD0839000
:100060000A0EC96E9EA6FED79E968380E80E006E8D
:10007000030E016EC1D880A80CD08390040EC96E07
:100080009EA6FED79E968380E80E006E030E016E3C
:10009000B3D880AA0CD08390050EC96E9EA6FED759
:1000A0009E968380E80E006E030E016EA5D882AC8A
:1000B0000CD08390060EC96E9EA6FED79E968380B6
:1000C000E80E006E030E016E97D881A00CD08390CD
:1000D0000B0EC96E9EA6FED79E968380E80E006E1C
:1000E000030E016E89D881A20CD08390070EC96ED1
:1000F0009EA6FED79E968380E80E006E030E016ECC
:100100007BD881A40CD08390080EC96E9EA6FED722
:100110009E968380E80E006E030E016E6DD881A658
:100120000CD08390090EC96E9EA6FED79E96838042
:10013000E80E006E030E016E5FD881A80CD083908C
:100140000C0EC96E9EA6FED79E968380E80E006EAA
:10015000030E016E51D881AA0CD083900F0EC96E88
:100160009EA6FED79E968380E80E006E030E016E5B
:1001700043D881AC0CD083900E0EC96E9EA6FED7DC
:100180009E968380E80E006E030E016E35D881AE18
:100190000CD083900D0EC96E9EA6FED79E968380CE
:1001A000E80E006E030E016E27D882AE2CD7839026
:1001B000C96A9EA6FED79E968380E80E006E030E47
:1001C000016E1AD820D7F29E92689368956AD00E75
:1001D000946E826A00D0AC84AC88C79EC79CC790DE
:1001E000C69AC68AC688C696C694C692C680C2906B
:1001F000C196C184C182120000500110D8B40CD045
:100200008C0E026E0252D8B403D000000206FAD758
:0A0210000006000E015AF0D712009C
:020000040030CA
:04000000FFF1F8FE16
:00000001FF
