:1000000039EF00F0FFFFFFFF010E936E816A946AE3
:10001000826A956A836A1200000E156E000E166ED3
:10002000000E176E000E186E000E196E000E1A6E7E
:10003000010E1B6E000E1C6E020E1D6E000E1E6E5B
:10004000040E1F6E000E206E080E216E000E226E32
:10005000100E236E000E246E200E256E000E266EEE
:10006000400E276E000E286E800E296E000E2A6E3E
:1000700012000CEC00F004EC00F08150020A2FE1B9
:10008000010E156E000E166E8150030A28E1010E56
:10009000046E19C000F01AC001F0045005E00036EB
:1000A00000900136FF0FFAD71B0E0024E96E000EF8
:1000B0000120EA6EEECF82FF000E1A1802E1000E58
:1000C000191805E1080E196E000E1A6E04D0010E03
:1000D000195E000E1A5A156A166A010E836E815057
:1000E000010A2CE1010E176E000E186E8150030AF2
:1000F00024E1010E046E19C000F01AC001F0045092
:1001000005E0003600900136FF0FFAD71B0E0024E1
:10011000E96E000E0120EA6EEECF82FF000E1A1883
:1001200002E1080E191803E1196A1A6A02D0194A85
:100130001A2A176A186A020E836E02D0FF0E836EA7
:100140009CD7FFD7FFFFFFFFFFFFFFFFFFFFFFFF72
:020000040030CA
:0E000000FFF9FDFEFFFFFFFFFFFFFFFFFFFF09
:00000001FF
