:020000040000FA
:1000000002EF00F02BD81ED8826A010E016E026A40
:1000100008D8C284C2B4FED7C4CF00F000C0BEFF6F
:10002000F4D701500210D8B40CD08C0E036E0352DA
:10003000D8B403D000000306FAD70106000E025A16
:10004000F0D71200F29E92689368946A956A966857
:10005000826A836A410EC26EC16A1200CB68BD6AB1
:10006000BE6ABD98BD9ABA6ABB6ABA98BA9A9494A5
:0C0070009492040ECA6E0C0EBD6E1200BD
:020000040030CA
:04000000FFF1F8FE16
:00000001FF
