:020000040000FA
:1000000002EF00F08CD8C96A9EA6FED7C9CF00F0D7
:100010009E9600C081FFE80E076E030E086ED8D8CA
:10002000002C04D0ACD8016A800EB4D8020E006255
:1000300005D0A5D80B0E016E800EACD8030E006261
:1000400005D09DD8160E016E800EA4D8040E006255
:1000500005D095D8210E016E800E9CD8050E006249
:1000600005D08DD82C0E016E800E94D8060E00623D
:1000700005D085D8370E016E800E8CD80052D8A4DA
:1000800005D07DD8420E016E800E84D80B0E006222
:1000900005D075D84D0E016E800E7CD8070E00621B
:1000A00005D06DD8580E016E800E74D8080E00620F
:1000B00005D065D8630E016E800E6CD8090E006203
:1000C00005D05DD86E0E016E800E64D80A0E0062F7
:1000D00005D055D8790E016E800E5CD80C0E0062EA
:1000E00005D04DD8840E016E800E54D80D0E0062DE
:1000F00005D045D88F0E016E800E4CD80E0E0062D2
:1001000005D03DD89A0E016E800E44D80F0E0062C5
:100110007AD735D8A50E016E800E3CD874D7F29EE2
:10012000956A9268966A180E946E936A816AAC8496
:10013000AC88C79EC79CC790C69EC69CC69AC68AF6
:10014000C688C696C684C692C6801200066E140E75
:10015000076E086A3DD806C083FF8492849084802D
:100160001200066E140E076E086A32D806C083FFAE
:10017000848284908480010E076E086A29D084945A
:1001800084808482380EE2DF010EE0DF0D0EDEDFB8
:10019000060EDCD7026E036A035001242AD8000A37
:1001A000D8B402D0032AF8D70250D0DF046A035033
:1001B00004600DD0045001241CD8D3DF056A1E0E44
:1001C000056003D00000052AFAD7042AF0D71200F0
:1001D00007500810D8B40CD08C0E096E0952D8B450
:1001E00003D000000906FAD70706000E085AF0D718
:1001F0001200066E0650080FF66E020EF76AF7221E
:10020000F86A0800F55012002031206275746F6E94
:100210007520002032206275746F6E7520002033C7
:10022000206275746F6E7520002034206275746FC3
:100230006E7520002035206275746F6E7520002069
:1002400036206275746F6E752000203020627574E0
:100250006F6E7520002042206275746F6E752000ED
:100260002037206275746F6E75200020382062750B
:10027000746F6E7520002039206275746F6E752062
:10028000002041206275746F6E752000204320624B
:1002900075746F6E7520002044206275746F6E75E2
:1002A00020002045206275746F6E75200020462066
:0802B0006275746F6E75200089
:020000040030CA
:04000000FFF1F8FE16
:00000001FF
