:020000040000FA
:0400000025EF00F0F8
:10000800D8CF00F0E0CF01F0026E9EA613D09E96E6
:10001800C7A607D0C7BA05D0C7B403D0C7B0C9CFE1
:1000280003F0C7A607D0C7AA05D0C7B403D0C7B086
:10003800C9CF04F0025001C0E0FF00C0D8FFC68855
:100048001000046A03D804C081FFFDD7926A936A3E
:10005800816A94869488020EC86E360EC66EC76A88
:10006800C56AC5809E969D86C00EF26E12007F50AE
:100078007F10D8B40CD08C0E7F6E7F52D8B403D0CA
:1000880000007F06FAD77F06000E7F5AF0D71200CD
:020000040030CA
:04000000FFF1F8FE16
:00000001FF
