:020000040000FA
:1000000002EF00F0006A016A026A036A27D8C2960A
:10001000010E046E056A31D8C284C2B4FED7C4CFC3
:1000200000F0C286010E046E056A27D8C284C2B4ED
:10003000FED7D890C430016E800E0124036E0150AB
:100040008008026E83B005D000500360E0D7838043
:10005000DED702500060DBD78390D9D7F29E92683A
:10006000936A946A956A968096829684826A836A75
:10007000816A410EC26EC16A1200045005100BE085
:100080008C0E066E065203E000000606FBD704063F
:08009000000E055AF2D7120020
:020000040030CA
:04000000FFF1F8FE16
:00000001FF
