:020000040000FA
:100000000DEF00F0900EF26E1DD82C0E006E010E5A
:10001000016E8ED8F292F28E120003D8F3DF030045
:10002000FF00F29E9268F80E936E946A956A966A43
:10003000826A836A816A880EF26EF10EF16E8B0E0F
:10004000F06E1200900EF26E81808192819481A0F8
:1000500028D081AA08D0060E836E2C0E006E010EE9
:10006000016E66D8836A81A808D05B0E836E2C0E61
:10007000006E010E016E5CD8836A81A608D04F0E17
:10008000836E2C0E006E010E016E52D8836A81AC15
:1000900008D03F0E836E2C0E006E010E016E48D804
:1000A000836A81828190819481A21ED081AA08D026
:1000B000660E836E2C0E006E010E016E39D8836AB7
:1000C00081A808D06D0E836E2C0E006E010E016E9D
:1000D0002FD8836A81A608D07D0E836E2C0E006E09
:1000E000010E016E25D8836A81848190819281A45A
:1000F0001ED081AA08D0070E836E2C0E006E010E52
:10010000016E16D8836A81A808D07F0E836E2C0EEC
:10011000006E010E016E0CD8836A81A608D06F0EA6
:10012000836E2C0E006E010E016E02D8836A1200DF
:1001300000500110D8B40CD08C0E026E0252D8B40C
:1001400003D000000206FAD70006000E015AF0D7CD
:0201500012009B
:020000040030CA
:04000000FFF1F8FE16
:00000001FF
