:020000040000FA
:1000000002EF00F067D8826A010E016E026A51D8D1
:10001000C284C2B4FED7C4CF00F00052D8A404D02A
:10002000000E64D8826EF0D7190E006204D0010E63
:100030005DD8826EE9D7330E006204D0020E56D826
:10004000826EE2D74C0E006204D0030E4FD8826E4F
:10005000DBD7660E006204D0040E48D8826ED4D777
:100060007F0E006204D0050E41D8826ECDD7990E66
:10007000006204D0060E3AD8826EC6D7B30E006274
:1000800004D0070E33D8826EBFD7CC0E006204D0E6
:10009000080E2CD8826EB8D7E60E006204D0090E86
:1000A00025D8826EB1D7003CAFD70A0E1FD8826E1A
:1000B000ABD701500210D8B40CD08C0E036E035293
:1000C000D8B403D000000306FAD70106000E025A86
:1000D000F0D71200F29E92689368946A956A9668C7
:1000E000826A836A410EC26EC16A1200016E0150BB
:1000F000020FF66E010EF76AF722F86A0800F55053
:0E01000012000102030405060708090A0B009D
:020000040030CA
:04000000FFF1F8FE16
:00000001FF
