:020000040000FA
:100000008BEF00F0828082A806D0320E7F6E7F6A6E
:10001000ABD8010E006E82AA06D0320E7F6E7F6AC8
:10002000A3D8020E006E82AC06D0320E7F6E7F6ABD
:100030009BD8030E006E82AE06D0320E7F6E7F6AB2
:1000400093D80A0E006E8290828282A806D0320E69
:100050007F6E7F6A89D8040E006E82AA06D0320EA7
:100060007F6E7F6A81D8050E006E82AC06D0320E9C
:100070007F6E7F6A79D8060E006E82AE06D0320E91
:100080007F6E7F6A71D80B0E006E8292828482A886
:1000900006D0320E7F6E7F6A67D8070E006E82AA86
:1000A00006D0320E7F6E7F6A5FD8080E006E82AC7B
:1000B00006D0320E7F6E7F6A57D8090E006E82AE70
:1000C00006D0320E7F6E7F6A4FD80C0E006E82947F
:1000D000828682A806D0320E7F6E7F6A45D80E0EC9
:1000E000006E82AA05D0320E7F6E7F6A3DD8006A0C
:1000F00082AC06D0320E7F6E7F6A36D80F0E006E4D
:1001000082AE06D0320E7F6E7F6A2ED80D0E006E44
:1001100082960050120002D80300FF00F29E12D80F
:1001200094869488020EC86E360EC66EC76AC58065
:100130009E969D86C00EF26EF00E956E946A836A4E
:10014000826A1200AC84AC88C79EC79CC790C68ADE
:10015000C6880A0EC86EC686C694C692C690C2905D
:10016000C196C184C18212007F507F10D8B40CD0D8
:100170008C0E7F6E7F52D8B403D000007F06FAD772
:0A0180007F06000E7F5AF0D7120030
:020000040030CA
:04000000FFF1F8FE16
:00000001FF
