:020000040000FA
:1000000002EF00F0300E006E12D800501CD8E80E3F
:10001000016E030E026E2CD8002A390E0064F5D74B
:10002000300E006E0A0E0FD80D0E0DD8EED7F29ED0
:100030009268936A946A956A968096829684826A98
:10004000836A816A0AD0016E9EA8FED70000000074
:100050000000000001C0ADFF1200949C948E190EA8
:10006000AF6EAC84AC98AB8E9D98AC9CAC8A120001
:10007000015002100BE05A0E036E035203E0000021
:0E0080000306FBD70106000E025AF2D712004B
:020000040030CA
:04000000FFF1F8FE16
:00000001FF
