:020000040000FA
:1000000002EF00F0300E006E016E12D842D8016E81
:100010001CD8640E026E036A2DD8012A390E0164C1
:10002000F5D7300E016E0A0E10D80D0E0ED8EED791
:10003000F29E9268936A946A956A968096829684F4
:10004000826A836A816A0BD82CD0026E9EA8FED782
:10005000000000000000000002C0ADFF1200949CF0
:10006000948E190EAF6EAC84AC98AB8E9D98AC9C00
:10007000AC8A1200025003100BE0500E046E0452C2
:1000800003E000000406FBD70206000E035AF2D775
:1000900012009EAAFED70000000000000000AE5033
:1000A0001200949C948E190EAF6EAC84AC98AB8EFB
:0800B0009D9AAB9CAB88120085
:020000040030CA
:04000000FFF1F8FE16
:00000001FF
